:020000020000FC
:0200000014C02A
:02000C007DC0B5
:02001C0064C0BE
:10002A000FE50DBF02E00EBF03E004BB05E003BF0E
:10003A0000E607B90FEA06B900E800BF0FEE06B9F5
:10004A0000E00FBD10E01BBD1FEF1ABD0CE00EBD96
:10005A0000E109BF899A10E078947FEF13D0FFCFAF
:10006A00122F120F00E0100F1ABD00E80BBD1ED0B0
:10007A00089523D0139521D013951FD013951DD021
:10008A00139508950F939F9304E0912F0FD015D0E5
:10009A0013951F3009F410E00A95C1F7192F13952B
:1000AA001F3009F410E09F910F910895E0E0F2E00B
:1000BA00E10F08F4F395349108950F9308E0330F94
:1000CA0010F4A99A03C0A99800000000A89A000099
:1000DA000000A8980A9599F70F9108952F932FB7C2
:1000EA002F931F930F936F9375B1709508B708BF3D
:1000FA006F910F911F912F912FBF2F91189567170D
:10010A0018F0C0DF66270AC0783C10F06395639543
:0E011A0063956395639563956395639518955A
:10020000C7889287FF8CAFC090AF88EAFFFFFF00DE
:00000001FF
