:020000020000FC
:0200000014C02A
:02001C0054C0CE
:10002A000FE50DBF02E00EBF03E004BB05E003BF0E
:10003A0000E607B90FEA06B900E800BF0FEE06B9F5
:10004A0078946894FFCF30E040E050E0245610F0F6
:10005A003395FCCF64E6260F2A5010F04395FCCF67
:10006A006AE0260F522FE0E0F2E0E30F08F4F3957E
:10007A003491E0E0F2E0E40F08F4F3954491E0E013
:10008A00F2E0E50F08F4F39554911FEF07D0132F10
:10009A0005D0142F03D0152F01D0089508E0110FB1
:1000AA0010F4A99A03C0A99800000000A89A0000B9
:1000BA000000A8980A9599F7089518952F932FB7D5
:1000CA002F931F930F936F9325B1BDDF08B708BF16
:0E00DA006F910F911F912F912FBF2F911895AD
:0A020000C0F9A4B0999282F8809032
:00000001FF
