:020000020000FC
:0200000014C02A
:02000800E6C050
:10002A000FE50DBF02E00EBF00E10FBD09E00EBDF6
:10003A0004E00BBD00E70ABD08E002BD05E005BD0E
:10004A0000E409BF03E004BB00EF07BB00E001BB0B
:10005A00689478941FEFABD01FEFA9D01FEFA7D0F9
:10006A0010ECA5D08C9A2EF530EE38BB92D0859B39
:10007A0027C0869B2FC0879B37C030ED38BB89D0FD
:10008A00859B3CC0869B44C0879B4CC030EB38BBE9
:10009A0080D0859B51C0869B59C0879B61C030E741
:1000AA0038BB77D0859B70C0869B64C0879B6EC027
:1000BA00DACFCEF230E738BB6CD0859B65C0F9CF7A
:1000CA0021E01FEF74D01FEF72D01FEF70D019EF2D
:1000DA006ED0C9CF22E01FEF6AD01FEF68D01FEFA2
:1000EA0066D014EA64D0BFCF23E01FEF60D01FEFC1
:1000FA005ED01FEF5CD010EB5AD0B5CF24E01FEFD3
:10010A0056D01FEF54D01FEF52D019E950D0ABCFC1
:10011A0025E01FEF4CD01FEF4AD01FEF48D012E95D
:10012A0046D0A1CF26E01FEF42D01FEF40D01FEFED
:10013A003ED012E83CD097CF27E01FEF38D01FEF10
:10014A0036D01FEF34D018EF32D08DCF28E01FEF12
:10015A002ED01FEF2CD01FEF2AD010E828D083CF43
:10016A0029E01FEF24D01FEF22D01FEF20D010E983
:10017A001ED079CF20E01FEF1AD01FEF18D01FEF43
:10018A0016D010EC14D06FCF68946DCFE8946BCF73
:10019A006ACF47E05DE75A95F1F74A95E1F7089586
:1001AA00EEEFF1E0E00F08F4F3951491089508E0FA
:1001BA00110F10F4A99A03C0A99800000000A89A88
:1001CA0000000000A8980A9599F7089508E00EBD66
:1001DA0086F0222359F02A951FEFE9DF1FEFE7DFA8
:1001EA001FEFE5DF022FDCDFE2DF03C009E00EBD0F
:1001FA0068941895C0F9A4B0999282F88090334413
:06020A0055003412769845
:00000001FF
