:020000020000FC
:0200000014C02A
:02000C0077C0BB
:02001C005CC0C6
:10002A000FE50DBF02E00EBF03E004BB05E003BF0E
:10003A0000E607B90FEA06B900E800BF0FEE06B9F5
:10004A0000E00FBD10E81BBD1FEF1ABD0BE00EBD8F
:10005A0000E109BF899A10E078940CD0FFCF1ED036
:10006A00089523D0139521D013951FD013951DD031
:10007A00139508950F939F9304E0912F0FD015D0F5
:10008A0013951F3009F410E00A95C1F7192F13953B
:10009A001F3009F410E09F910F910895E0E0F2E01B
:1000AA00E10F08F4F395349108950F9308E0330FA4
:1000BA0010F4A99A03C0A99800000000A89A0000A9
:1000CA000000A8980A9599F70F9108952F932FB7D2
:1000DA002F931F930F936F9325B120952BBD2ABDA4
:1000EA0008B708BF6F910F911F912F912FBF2F91C2
:0600FA001895C0DF189507
:10020000C7889287FF8CAFC090AF88EAFFFFFF00DE
:00000001FF
