:020000020000FC
:0600000014C05FC068C0DF
:02001C0061C0C1
:10002A000FE50DBF02E00EBF60E303E004BB00E68C
:10003A0007B90CEA06B900B7006800BF05E003BFBC
:10004A000CEE06B97894FFCF4427332722270456AB
:10005A0010F04395FCCF54E6050F0A5010F0339583
:10006A00FCCF5AE0050F015011F02395FCCF1BE09D
:10007A000BD011D0142F08D00ED0132F05D00BD0CF
:10008A00122F02D008D00895E0ECF0E0E10F08F456
:10009A00F395149108950F9308E0110F10F4A99A9B
:1000AA0003C0A99800000000A89A00000000A898C0
:1000BA000A9599F70F9108950F931F9368945D9B82
:1000CA00FECF01E30CB91F910F9118950F931F935F
:1000DA001F910F9118950F932F932FB72F9305B157
:1000EA00B3DF08B708BF2F912FBF2F910F91189533
:00000001FF
