:020000020000FC
:0600000014C046C048C018
:020008004BC0EB
:10002A000FE50DBF02E00EBF2227332744275527CD
:10003A0003E004BB02E00BB908E10AB900E800BD1D
:10004A0006E800BD08E002BD05E005BD00E409BF01
:10005A000AE005BF899A7894FFCFE0E1F1E0E00F6A
:10006A0008F4F3951491089508E0110F10F4A99A71
:10007A0003C0A99800000000A89A00000000A898F0
:10008A000A9599F708950F931F9368940F931F93F6
:10009A001F910F9118950F931F9323952A3009F0FA
:1000AA0010C022273395363009F00BC03327439509
:1000BA004A3009F006C044275395563009F001C06A
:1000CA00552760E3052FC9DF060F0CB9CDDF042FD2
:1000DA00C4DF060F0CB91EF01068689402C01F77BF
:1000EA00E894C2DF1AE31CB9032FB7DF060F0CB975
:1000FA00BBDF022FB2DF060F0CB9B6DF10E21CB964
:10010A001F910F911895C0F9A4B0999282F8809026
:04011A00341276988D
:00000001FF
