:020000020000FC
:0600000014C061C068C0DD
:10002A000FE50DBF02E00EBF0AE005BF00EC0BBFF3
:10003A00789403E004BBAAE6B0E01FEF30D01FEFCC
:10004A002ED01FEF2CD01FEF2AD010EC28D01DD0B5
:10005A0019EF25D01AD014EA22D017D010EB1FD0EE
:10006A0014D019E91CD011D012E919D00ED012E817
:10007A0016D00BD018EF13D008D010E810D005D046
:10008A0010E90DD002D0E1CFD4CF43E05AE866E5BB
:10009A006A95F1F75A95E1F74A95D1F7089508E07C
:1000AA00110F10F4A99A03C0A99800000000A89A99
:1000BA0000000000A8980A9599F70895AF93BF9396
:1000CA001F9368941F91BF91AF911895AF93BF93F7
:0800DA00E894BF91AF91189565
:00000001FF
