:020000020000FC
:0600000014C0B8C0BDC031
:02000800AAC08C
:10002A000FE50DBF02E00EBFBB9A0AE005BF00EC68
:10003A000BBF00E10FBD09E00EBD78948C9A0EE06B
:10004A000BBD08EE0ABD7CD07BD00BE00BBD01E3F3
:10005A000ABD76D075D00BE00BBD06ED0ABD70D097
:10006A006FD00EE00BBD08EE0ABD6AD00EE00BBDE4
:10007A0008EE0ABD65D064D00DE00BBD09E40ABDE7
:10008A005FD00EE00BBD08EE0ABD5AD059D009E088
:10009A000BBD07EF0ABD54D053D00BE00BBD01E3F3
:1000AA000ABD4ED04DD00EE00BBD08EE0ABD48D0B9
:1000BA000EE00BBD08EE0ABD43D042D00EE00BBDE8
:1000CA0008EE0ABD3DD008E00BBD00EE0ABD38D0EF
:1000DA0037D00BE00BBD01E30ABD32D00BE00BBDFC
:1000EA0001E30ABD2DD00BE00BBD06ED0ABD28D0F9
:1000FA000DE00BBD09E40ABD23D022D008E00BBDF8
:10010A0001E60ABD1DD008E00BBD01E60ABD18D004
:10011A0017D008E00BBD00EE0ABD12D00BE00BBDF4
:10012A0001E30ABD0DD00CD009E00BBD07EF0ABDF3
:10013A0007D00BE00BBD01E30ABD02D001D07FCF8F
:10014A0022E035E44AEA4A95F1F73A95E1F72A9529
:10015A00D1F7089526F00A9531F4689404C00395FE
:10016A000F3F09F4E8940CBF18950F931F936894F6
:10017A001F910F9118950F931F93E8941F910F9158
:02018A001895C6
:00000001FF
